:100000000C9443000C9460000C9460000C9460000D
:100010000C9460000C9460000C9460000C946000E0
:100020000C9460000C9460000C9460000C94F1003F
:100030000C946D010C9460000C9481000C9461018F
:100040000C9460000C9460000C9460000C946000B0
:100050000C9460000C9460000C9460000C946000A0
:100060000C9460000C94600005A84CCDB2D44EB93D
:100070003836A9020C50B9918688083CA6AAAA2A4B
:10008000BE000000803F11241FBECFEFD8E0DEBFCE
:10009000CDBF11E0A0E0B1E0EEEFFDE002C00590C1
:1000A0000D92A830B107D9F711E0A8E0B1E001C086
:1000B0001D92A931B107E1F70E946D030C94FD0672
:1000C0000C9400001092C50087E68093C400E2EC17
:1000D000F0E0808186608083E1ECF0E080818861DF
:1000E00080830895982F8091C00085FFFCCF909366
:1000F000C60008958091C00087FFFCCF8091C600A4
:1001000008951F920F920FB60F9211241F932F93F1
:100110003F934F935F936F937F938F939F93AF938F
:10012000BF93EF93FF932B988091080120910901D1
:1001300030910A0140910B0160910C01E0910D0199
:10014000A0910E0110910F01B82FBF5F91E0B81779
:1001500008F090E0F92FF20F81E0F21708F080E04C
:10016000782F730F81E0731708F080E0582F540F39
:1001700081E0541708F080E0382F360F81E0361701
:1001800008F080E0282F2E0F81E02E1708F080E085
:10019000982F9A0F81E09A1708F080E0810FB093B2
:1001A0000801F093090170930A0150930B013093F9
:1001B0000C0120930D0190930E0180930F01FF918C
:1001C000EF91BF91AF919F918F917F916F915F91CF
:1001D0004F913F912F911F910F900FBE0F901F9045
:1001E00018951F920F920FB60F9211241F932F9301
:1001F0003F934F935F936F937F938F939F93AF93AF
:10020000BF93EF93FF932C988091100120911101DF
:10021000309112014091130160911401E091150198
:10022000A091160110911701B82FBF5F91E0B81788
:1002300008F090E0F92FF20F81E0F21708F080E06B
:10024000782F730F81E0731708F080E0582F540F58
:1002500081E0541708F080E0382F360F81E0361720
:1002600008F080E0282F2E0F81E02E1708F080E0A4
:10027000982F9A0F81E09A1708F080E0810FB093D1
:100280001001F093110170931201509313013093F8
:100290001401209315019093160180931701FF918B
:1002A000EF91BF91AF919F918F917F916F915F91EE
:1002B0004F913F912F911F910F900FBE0F901F9064
:1002C00018951F920F920FB60F9211242B9A16BCFD
:1002D0000F900FBE0F901F9018951F920F920FB6A0
:1002E0000F9211242C9A10928500109284000F9086
:1002F0000FBE0F901F9018959B01AC010E94C00388
:100300002BED3FE049E450E40E94C80520E030E0D6
:1003100040E752E40E942B0408959B01AC0160E089
:100320007CE782E196E40E942B040E94930468BD5E
:1003300008959B01AC0160E07CE782E196E40E94B5
:100340002B040E94930470938B0060938A0008959D
:100350009B01AC0160E070E088E49FE30E942B0405
:100360000E94930470938B0060938A0008952091FB
:1003700010013091110140911201509113016091CF
:1003800014017091150180911601909117010E943E
:10039000C40420E030E048E453E40E942B0420E051
:1003A00030E040E05EE30E94C80520E030E048E431
:1003B00053E40E942B040895882311F0289A01C069
:1003C000289880931801089584B18F6184B91AB870
:1003D000539A83E08093810085BDEFE6F0E0808151
:1003E00086608083EEE6F0E08081866080831092F4
:1003F00085001092840016BC88E587BD88E590E0F2
:100400009093890080938800299A5B9A0E946200E9
:100410000895F894299A5B9A089589B1282F30E0BD
:1004200080911801882339F03695279536952795C0
:10043000822F8170089585E0369527958A95E1F79A
:10044000822F8170089589B18095881F8827881F21
:10045000089589B18295869586958370809581707F
:10046000089578945B9A2998289A81E080931801DE
:1004700060E070E088EC92E40E94990140911801DC
:1004800020EA3FE089B190E0442329F096958795D2
:100490009695879505C055E0969587955A95E1F70D
:1004A000817031F44F9B04C0C9010197F1F7EACF85
:1004B000F894299A5B9A0895AF92BF92CF92DF92F7
:1004C000EF92FF920F931F9359016A012BED3FE0CA
:1004D00049EC50E40E94C8052AE939E949E15FE3A3
:1004E0000E942B040E94280420E030E040E85EE3F4
:1004F0000E94C80520E030E040E85FE30E94C003AE
:100500009B01AC0166EA71E688E79CE30E942B043C
:100510002CEA35EC47EA5AE30E94BF0329EC30E5A8
:100520004FEA54E40E94C8059B01AC010E94C80533
:1005300020E030E040E85FE30E94BF030E942F0606
:1005400022E539E44DE95AE30E942B047B018C013A
:1005500020E030E040E050E00E94C40518162CF086
:10056000E0E070E080E060E008C0C601B501A801ED
:1005700097010E942B04E62F692F2E2F372F482F2B
:10058000562FB901CA011F910F91FF90EF90DF9094
:10059000CF90BF90AF900895AF92BF92CF92DF926D
:1005A000EF92FF920F931F93CF93DF93109210015E
:1005B0001092110110921201109213011092140165
:1005C0001092150110921601109217011092080155
:1005D0001092090110920A0110920B0110920C0165
:1005E00010920D0110920E0110920F0160E070E068
:1005F00088EC92E40E947C015B016C0160E070E099
:1006000088EC92E40E948D01789428981092180149
:1006100029985B980F2EF0E0EF2EF0E0FF2EF0E02F
:100620000F2FF0E01F2FF02DC0E2DEE4C801B7016C
:100630002AE939E949E15FE30E942404882324F58B
:1006400089B1282F30E080911801882329F0369550
:1006500027953695279505C075E0369527957A95A7
:10066000E1F7822F817081F44E9B0EC00E94B7018A
:100670007B018C01A60195010E945C020E94A801E9
:10068000CE010197F1F7D2CFF894299A5B9ADF91C6
:10069000CF911F910F91FF90EF90DF90CF90BF907F
:1006A000AF900895AC01DC010D900020E9F711979F
:1006B000A81BB90B20E030E00CC0FA01E20FF31FD9
:1006C000E0818091C00085FFFCCFE093C6002F5FE2
:1006D0003F4F2A173B078CF30895CF93DF930E9477
:1006E000E401F894299A5B9A80E091E00E94520319
:1006F0002AEF30E0C0E9D1E009C0CE010197F1F75F
:100700002150304003C02AEF30E0F7CF21153105EA
:10071000A1F74E990AC00E94310288E893E1FE01D8
:100720003197F1F70197D9F7EECF4F99ECCF0E94AF
:10073000CC0288E893E1FE013197F1F70197D9F7F0
:10074000E2CF0F931F93DF93CF9300D000D00F928F
:10075000CDB7DEB78E010F5F1F4FB8014AE050E002
:100760000E94B806C8010E9452030F900F900F908C
:100770000F900F90CF91DF911F910F9108955058D6
:10078000BB27AA270ED0B5C17ED130F083D120F08F
:1007900031F49F3F11F41EF463C10EF4E095E7FBC2
:1007A00059C1E92FC8D180F3BA17620773078407CC
:1007B000950718F071F49EF5E0C10EF4E0950B2E4C
:1007C000BA2FA02D0B01B90190010C01CA01A001A3
:1007D0001124FF27591B99F0593F50F4503E68F1FE
:1007E0001A16F040A22F232F342F4427585FF3CF3F
:1007F000469537952795A795F0405395C9F77EF410
:100800001F16BA0B620B730B840BBAF09150A1F058
:10081000FF0FBB1F661F771F881FC2F70EC0BA0FDE
:10082000621F731F841F48F4879577956795B79566
:10083000F7959E3F08F0B3CF9395880F08F099275E
:10084000EE0F979587950895E1D008F481E008951B
:1008500029D1E3955FC10CD04CC11CD140F013D11C
:1008600030F021F45F3F19F0F5C0511187C1F8C095
:1008700062D198F39923C9F35523B1F3951B550B16
:10088000BB27AA2762177307840738F09F5F5F4F63
:10089000220F331F441FAA1FA9F333D00E2E3AF0A4
:1008A000E0E830D091505040E695001CCAF729D0BE
:1008B000FE2F27D0660F771F881FBB1F261737070D
:1008C0004807AB07B0E809F0BB0B802DBF01FF273D
:1008D00093585F4F2AF09E3F510568F0BBC04EC150
:1008E0005F3FECF3983EDCF3869577956795B79577
:1008F000F7959F5FC9F7880F911D9695879597F992
:100900000895E1E0660F771F881FBB1F621773070A
:100910008407BA0720F0621B730B840BBA0BEE1F1F
:1009200088F7E095089504D06894B11127C108951F
:100930000AD188F09F5790F0B92F9927B751A0F0AE
:10094000D1F0660F771F881F991F1AF0BA95C9F763
:1009500012C0B13081F011D1B1E008950EC1672FFE
:10096000782F8827B85F39F0B93FCCF38695779513
:100970006795B395D9F73EF49095809570956195FC
:100980007F4F8F4F9F4F089597FB0EF46CD001C09F
:10099000E894F92F96EBFF2381F012161306140644
:1009A000440B9395F69587957795679557954040B5
:1009B000FF23B9F71BC099270895882351F4985055
:1009C000D2F7872B762F652F542F432F322F20E01D
:1009D000B1F3121613061406440B88233AF09A95C5
:1009E000440F551F661F771F881FCAF755234AF407
:1009F000440F551F11F460FF04C06F5F7F4F8F4F8E
:100A00009F4F880F9695879597F90895990F00083D
:100A1000550FAA0BE0E8FEEF16161706E807F907D0
:100A2000C0F012161306E407F50798F0621B730B6B
:100A3000840B950B39F40A2661F0232B242B252BEC
:100A400021F408950A2609F4A140A6958FEF811D8F
:100A5000811D089597F99F6780E870E060E0089530
:100A60009FEF80EC089590958095709560955095D6
:100A70004095309521953F4F4F4F5F4F6F4F7F4FC0
:100A80008F4F9F4F089500240A94161617061806D4
:100A90000906089500240A94121613061406050682
:100AA0000895DECF50D0E8F3E894E0E0BB279F57ED
:100AB000F0F02AED3FE049EC06C0EE0FBB0F661FD9
:100AC000771F881F28F0B23A62077307840728F05F
:100AD000B25A620B730B840BE3959A9572F78038C8
:100AE00030F49A95BB0F661F771F881FD2F7904886
:100AF000F6C0092E0394000C11F4882352F0BB0FAA
:100B000040F4BF2B11F460FF04C06F5F7F4F8F4F25
:100B10009F4F0895EF93E0FF06C0A2EA2AED3FE061
:100B200049EC5FEB3EDEE5DF0F90039401FC90584B
:100B3000E8E6F0E0E7C057FD9058440F551F59F024
:100B40005F3F71F04795880F97FB991F61F09F3FBA
:100B500079F087950895121613061406551FF2CFE3
:100B60004695F1DF08C0161617061806991FF1CF33
:100B700086957105610508940895E894BB2766275A
:100B80007727CB0197F9089541DF08F48FEF089597
:100B90000BD0AFCF78DF28F07DDF18F0952309F078
:100BA00059CF5ECF1124EACFC6DFA0F3959FD1F3D2
:100BB000950F50E0551F629FF001729FBB27F00D0B
:100BC000B11D639FAA27F00DB11DAA1F649F662760
:100BD000B00DA11D661F829F2227B00DA11D621FAF
:100BE000739FB00DA11D621F839FA00D611D221F69
:100BF000749F3327A00D611D231F849F600D211D4D
:100C0000822F762F6A2F11249F5750408AF0E1F0EF
:100C100088234AF0EE0FFF1FBB1F661F771F881F38
:100C200091505040A9F79E3F510570F013CFA6CFC9
:100C30005F3FECF3983EDCF3869577956795B79523
:100C4000F795E7959F5FC1F7FE2B880F911D96954D
:100C5000879597F9089511F40EF402CF3EC073DF23
:100C6000D0F39923D9F3CEF39F57550B87FF43D089
:100C70000024A0E640EA900180585695979528F404
:100C8000805C660F771F881F20F0261737074807FC
:100C900030F4621B730B840B202931294A2BA69553
:100CA00017940794202531254A2758F7660F771F98
:100CB000881F20F026173707480730F4620B730BA4
:100CC000840B200D311D411DA09581F7B901842FA2
:100CD0009158880F9695879508959F3F31F09150D0
:100CE00020F4879577956795B795880F911D969510
:100CF000879597F9089591505040660F771F881F88
:100D0000D2F708959F938F937F936F93FF93EF9301
:100D10009B01AC013DDFEF91FF9105D02F913F91F9
:100D20004F915F9135CFDF93CF931F930F93FF9236
:100D3000EF92DF927B018C01689405C0DA2EEF01FF
:100D400033DFFE01E894A5912591359145915591A8
:100D5000AEF3EF0126DDFE019701A801DA9479F7E1
:100D6000DF90EF90FF900F911F91CF91DF91089549
:100D7000FB019F01E8944230C4F04532B4F44A309C
:100D800029F497FB1EF4909581959F4F642F772748
:100D90000E94E906805D8A330CF0895D8193CB0166
:100DA0000097A1F716F45DE251931082C9010C94EB
:100DB000D906DC01FC01672F71917723E1F73297A7
:100DC00004C07C916D9370836291AE17BF07C8F326
:100DD0000895AA1BBB1B51E107C0AA1FBB1FA61782
:100DE000B70710F0A61BB70B881F991F5A95A9F7D4
:0E0DF00080959095BC01CD010895F894FFCF39
:080DFE0068656C6C6F210A00AE
:00000001FF
