:100000000C9443000C9460000C9460000C9460000D
:100010000C9460000C9460000C9460000C946000E0
:100020000C9460000C9460000C9460000C944A01E5
:100030000C94C6010C9460000C94DA000C94BA0184
:100040000C9460000C9460000C9460000C946000B0
:100050000C9460000C9460000C9460000C946000A0
:100060000C9460000C94600005A84CCDB2D44EB93D
:100070003836A9020C50B9918688083CA6AAAA2A4B
:10008000BE000000803F11241FBECFEFD8E0DEBFCE
:10009000CDBF12E0A8E0B2E001C01D92A831B107C7
:1000A000E1F712E0A0E0B1E0E6EAF9E102C0059074
:1000B0000D92A830B107D9F70E94A4020C94D10C7C
:1000C0000C9400009B01AC010E9460052BED3FE009
:1000D00049E450E40E948D0520E030E040E752E41E
:1000E0000E94870608959B01AC0160E07CE782E1F5
:1000F00096E40E9487060E94F10768BD08959B015F
:10010000AC0160E07CE782E196E40E9487060E94F1
:10011000F10770938B0060938A0008959B01AC01F6
:1001200060E070E088E49FE30E9487060E94F10788
:1001300070938B0060938A00089520911002309193
:1001400011024091120250911302609114027091B9
:10015000150280911602909117020E94E80220E099
:1001600030E048E453E40E94870620E030E040E0BD
:100170005EE30E948D0520E030E048E453E40E94F5
:1001800087060895289860E070E088EC92E40E9469
:100190007F000E949D0020E030E040E050E00E949F
:1001A0003307181634F420EA3FE0C9010197F1F74C
:1001B000FCCF08951F920F920FB60F9211241F9338
:1001C0002F933F934F935F936F937F938F939F935F
:1001D000AF93BF93EF93FF932B98809108022091E8
:1001E000090230910A0240910B0260910C02E091E9
:1001F0000D02A0910E0210910F02B82FBF5F91E087
:10020000B81708F090E0F92FF20F81E0F21708F02C
:1002100080E0782F730F81E0731708F080E0582F8B
:10022000540F81E0541708F080E0382F360F81E03A
:10023000361708F080E0282F2E0F81E02E1708F0E7
:1002400080E0982F9A0F81E09A1708F080E0810FE4
:10025000B0930802F093090270930A0250930B02C4
:1002600030930C0220930D0290930E0280930F02A4
:10027000FF91EF91BF91AF919F918F917F916F917E
:100280005F914F913F912F911F910F900FBE0F9053
:100290001F9018951F920F920FB60F9211241F9363
:1002A0002F933F934F935F936F937F938F939F937E
:1002B000AF93BF93EF93FF932C98809110022091FE
:1002C0001102309112024091130260911402E091E8
:1002D0001502A091160210911702B82FBF5F91E08E
:1002E000B81708F090E0F92FF20F81E0F21708F04C
:1002F00080E0782F730F81E0731708F080E0582FAB
:10030000540F81E0541708F080E0382F360F81E059
:10031000361708F080E0282F2E0F81E02E1708F006
:1003200080E0982F9A0F81E09A1708F080E0810F03
:10033000B0931002F09311027093120250931302C3
:1003400030931402209315029093160280931702A3
:10035000FF91EF91BF91AF919F918F917F916F919D
:100360005F914F913F912F911F910F900FBE0F9072
:100370001F9018951F920F920FB60F9211242B9A6F
:1003800016BC0F900FBE0F901F9018951F920F92E2
:100390000FB60F9211242C9A1092850010928400AF
:1003A0000F900FBE0F901F9018951092C50087E612
:1003B0008093C400E2ECF0E0808186608083E1EC11
:1003C000F0E08081886180830895982F8091C0003B
:1003D00085FFFCCF9093C60008958091C00087FFF1
:1003E000FCCF8091C600089584B18F6184B983E009
:1003F0008093810085BDEFE6F0E080818660808398
:10040000EEE6F0E080818660808310928500109295
:10041000840016BC82E387BD82E390E0909389005C
:1004200080938800289A2A9A29980E94D501789466
:100430000895AC01DC010D900020E9F71197A81B8D
:10044000B90B20E030E00CC0FA01E20FF31FE081AD
:100450008091C00085FFFCCFE093C6002F5F3F4F27
:100460002A173B078CF30895AF92BF92CF92DF9289
:10047000EF92FF920F931F9359016A012BED3FE01A
:1004800049EC50E40E948D0520E030E040E45FE359
:100490000E9487060E94F60A20E030E040E85EE312
:1004A0000E948D0520E030E040E85FE30E94600597
:1004B0009B01AC016FEB7EE08CE19CE30E94870620
:1004C00023ED39ED49EC5AE30E942F052DE63BED73
:1004D0004EE054E40E948D059B01AC010E948D0505
:1004E00020E030E040E85FE30E942F050E94580BB7
:1004F0002FE632E143E05AE30E9487067B018C013C
:1005000020E030E040E050E00E94330718162CF065
:10051000E0E070E080E060E008C0C601B501A8013D
:1005200097010E948706E62F692F2E2F372F482F1D
:10053000562FB901CA011F910F91FF90EF90DF90E4
:10054000CF90BF90AF900895AF92BF92CF92DF92BD
:10055000EF92FF920F931F93CF93DF930E94F401CA
:1005600060E070E088EC92E40E9462005B016C0144
:1005700060E070E088EC92E40E947300C0EADFE083
:100580000E949D007B018C01A60195010E9434020E
:100590000E948E00CE010197F1F7C801B70120E05B
:1005A00030E040E45FE30E94630787FDE9CF15B8C0
:1005B000F894299A299A80E090E0DF91CF911F91D9
:1005C0000F91FF90EF90DF90CF90BF90AF90089584
:1005D000A4E0B0E0EEEEF2E00C94C10A49015A0149
:1005E0006B017C01D501C4019C01AD01550F220BAB
:1005F000322FA901881599F4991589F4AA1579F46F
:10060000BB1569F42C1559F42D1549F42E1539F440
:100610002F1529F4C501B4010E949307D0C094019D
:10062000A501B601C70100E20E944508C901A42F37
:10063000B52FB7FF07C0B095A095909581959F4FB6
:10064000AF4FBF4F803020E0920721E0A20720E0AB
:10065000B20780F48F3F9105A105B10531F028F074
:1006600028E030E040E050E016C020E030E040E01C
:1006700050E011C0803030E0930730E0A30731E054
:10068000B30728F028E130E040E050E004C020E16A
:1006900030E040E050E060E2462E512C612C712C9D
:1006A000421A530A640A750A04C0B695A79597952D
:1006B00087952A95D2F7FC01E85FFE4F8081481AA2
:1006C000510861087108411451046104710429F44E
:1006D00060E070E080E09FED72C081E290E0A0E019
:1006E000B0E084199509A609B70989839A83AB8379
:1006F000BC8319819401A501B601C701012F0E9495
:100700004508C901DA012C013D0180E290E0A98190
:10071000BA818A1B9B0BA501940104C0220F331FD1
:10072000441F551F8A95D2F7211531054105510502
:1007300041F081E090E0A0E0B0E0482A592A6A2A1E
:100740007B2A29813A814B815C8120323105410528
:10075000510559F40F2EF0E0CF2EF0E0DF2EF0E837
:10076000EF2EFFE4FF2EF02D22C089819A81AB810C
:10077000BC814F97A105B10559F40F2EF0E0CF2EA3
:10078000F0E0DF2EF0E0EF2EFFE4FF2EF02D0FC0A3
:1007900061E070E080E090E004C0660F771F881F82
:1007A000991F1A95D2F70E9493076B017C01C30130
:1007B000B2010E949307A70196010E948D0524961D
:1007C000E0E10C94DD0AA0E0B0E0E9EEF3E00C9487
:1007D000BF0ADC012B01FA019C91923008F439C167
:1007E000EB018881823008F433C1943069F484309D
:1007F00009F02FC111969C9111978981981709F4DE
:1008000028C1A0E0B1E025C1843009F421C18230C3
:10081000A9F4923009F01DC19A01AD0188E0EA0106
:100820000990AE01E90109929E018150C1F7E201F0
:10083000898111969C918923818308C1923009F4A2
:1008400007C112962D903C901397EB018A819B81F2
:100850001496AD90BD90CD90DC901797EC80FD8004
:100860000E811F819101281B390BB90137FF04C08C
:1008700066277727621B730B603271050CF061C02D
:10088000121613066CF537014801062E04C0969423
:100890008794779467940A94D2F721E030E040E09F
:1008A00050E004C0220F331F441F551F6A95D2F732
:1008B00021503040404050402E213F2140235123C1
:1008C000211531054105510521F021E030E040E0DE
:1008D00050E079018A01E628F728082919293CC047
:1008E000232BD1F1260E371E35014601062E04C0FA
:1008F00096948794779467940A94D2F721E030E035
:1009000040E050E004C0220F331F441F551F6A957A
:10091000D2F721503040404050402A213B214C2109
:100920005D21211531054105510521F021E030E01F
:1009300040E050E059016A01A628B728C828D92804
:100940000BC0821593052CF01C01AA24BB24650161
:1009500003C0EE24FF24870111969C91D2011196C9
:100960008C91981709F445C0992339F0A801970193
:100970002A193B094C095D0906C0A60195012E19EB
:100980003F09400B510B57FD08C011823382228270
:1009900024833583468357831DC081E0818333825E
:1009A000228288279927DC01821B930BA40BB50BAD
:1009B00084839583A683B7830DC0220F331F441F02
:1009C000551F248335834683578382819381019702
:1009D000938382832481358146815781DA01C9015D
:1009E0000197A109B1098F5F9F4FAF4FBF4328F314
:1009F0000BC0918333822282EA0CFB1C0C1D1D1D4F
:100A0000E482F5820683178383E080832481358125
:100A10004681578157FF1AC0C901AA2797FDA095A3
:100A2000BA2F81709070A070B07056954795379529
:100A30002795822B932BA42BB52B84839583A68398
:100A4000B78382819381019693838283DF0101C002
:100A5000D201CD01CDB7DEB7E2E10C94DB0AA0E212
:100A6000B0E0E5E3F5E00C94CB0A69837A838B83ED
:100A70009C832D833E834F835887E9E0EE2EF12C33
:100A8000EC0EFD1ECE010196B7010E94EE098E010B
:100A90000F5E1F4FCE010596B8010E94EE098A89AC
:100AA00091E089278A8BC701B801AE01475E5F4F8D
:100AB0000E94E3030E941909A096E6E00C94E70A5D
:100AC000A0E2B0E0E6E6F5E00C94CB0A69837A8315
:100AD0008B839C832D833E834F835887F9E0EF2ED1
:100AE000F12CEC0EFD1ECE010196B7010E94EE091D
:100AF0008E010F5E1F4FCE010596B8010E94EE09D0
:100B0000C701B801AE01475E5F4F0E94E3030E9438
:100B10001909A096E6E00C94E70AA0E2B0E0E3E948
:100B2000F5E00C94BF0A69837A838B839C832D83C1
:100B30003E834F835887CE010196BE01675F7F4F8A
:100B40000E94EE09CE010596BE016F5E7F4F0E94A6
:100B5000EE099985923088F089898230C8F0943006
:100B600019F4823051F404C0843029F4923081F4B5
:100B700080E091E0C6C0923049F420E09A858A89ED
:100B8000981321E02A87CE010996BBC0823049F430
:100B900020E09A858A89981321E02A8BCE0141961C
:100BA000B0C02D843E844F8458886D887E888F889D
:100BB000988CEE24FF248701AA24BB24650140E021
:100BC00050E060E070E0E0E0F0E0C1018170907022
:100BD000892BE9F0E60CF71C081D191D9A01AB01E1
:100BE0002A0D3B1D4C1D5D1D80E090E0A0E0B0E0B3
:100BF000E614F7040805190520F481E090E0A0E070
:100C0000B0E0BA01A901480F591F6A1F7B1FAA0C47
:100C1000BB1CCC1CDD1C97FE08C081E090E0A0E06E
:100C2000B0E0A82AB92ACA2ADB2A3196E032F105B7
:100C300049F0660C771C881C991C5694479437948D
:100C40002794C3CFFA85EA892B893C898B859C85BB
:100C5000280F391F2E5F3F4F17C0CA018170907057
:100C6000892B61F016950795F794E79480E090E062
:100C7000A0E0B0E8E82AF92A0A2B1B2B76956795A5
:100C8000579547952F5F3F4F77FDE7CF0CC0440F37
:100C9000551F661F771F17FD4160EE0CFF1C001FDC
:100CA000111F21503040403090E0590790E0690713
:100CB00090E4790760F32B8F3C8FDB01CA018F77BB
:100CC0009070A070B07080349105A105B10561F4F9
:100CD00047FD0AC0E114F1040105110529F0405C4B
:100CE0005F4F6F4F7F4F40781A8EFE1711F081E0F3
:100CF0008A8F4D8F5E8F6F8F78A383E0898FCE01AF
:100D000049960E941909A096E2E10C94DB0AA8E139
:100D1000B0E0EDE8F6E00C94C70A69837A838B8330
:100D20009C832D833E834F835887B9E0EB2EF12CB3
:100D3000EC0EFD1ECE010196B7010E94EE098E0158
:100D40000F5E1F4FCE010596B8010E94EE0929855E
:100D5000223008F47EC03989323010F4B8017CC0EA
:100D60008A859A8989278A87243011F0223031F4C4
:100D7000231709F06EC060E071E06EC0343039F4C2
:100D80001D861E861F86188A1C861B8604C032306C
:100D900021F484E08987B7015FC02B853C858B896E
:100DA0009C89281B390B3C872B87ED84FE840F859B
:100DB0001889AD88BE88CF88D88CEA14FB040C054E
:100DC0001D0540F4EE0CFF1C001F111F2150304088
:100DD0003C872B8720E030E040E050E080E090E06E
:100DE000A0E0B0E460E070E0EA14FB040C051D052F
:100DF00040F0282B392B4A2B5B2BEA18FB080C09F7
:100E00001D09B695A79597958795EE0CFF1C001FB9
:100E1000111F6F5F7F4F6F31710531F7DA01C90123
:100E20008F779070A070B07080349105A105B105E6
:100E300061F427FD0AC0E114F1040105110529F050
:100E4000205C3F4F4F4F5F4F20782D873E874F8765
:100E5000588BBE01675F7F4FCB010E9419096896CE
:100E6000EAE00C94E30AA8E1B0E0E9E3F7E00C94CF
:100E7000CB0A69837A838B839C832D833E834F8344
:100E8000588789E0E82EF12CEC0EFD1ECE0101966C
:100E9000B7010E94EE098E010F5E1F4FCE0105962D
:100EA000B8010E94EE098985823040F0898982303C
:100EB00028F0C701B8010E94660A01C08FEF68964A
:100EC000E6E00C94E70AA8E1B0E0E9E6F7E00C946C
:100ED000CB0A69837A838B839C832D833E834F83E4
:100EE000588789E0E82EF12CEC0EFD1ECE0101960C
:100EF000B7010E94EE098E010F5E1F4FCE010596CD
:100F0000B8010E94EE098985823040F089898230DB
:100F100028F0C701B8010E94660A01C081E0689606
:100F2000E6E00C94E70AA8E0B0E0E9E9F7E00C9409
:100F3000C80A9B01AC0183E08983DA01C9018827D3
:100F4000B7FD83959927AA27BB27B82E2115310510
:100F50004105510519F482E089833AC08823A9F03C
:100F6000203080E0380780E0480780E8580729F4FF
:100F700060E070E080E09FEC30C0EE24FF24870149
:100F8000E21AF30A040B150B02C079018A018EE103
:100F9000C82ED12CDC82CB82ED82FE820F83188793
:100FA000C801B7010E94CA0801971816190684F4EF
:100FB000082E04C0EE0CFF1C001F111F0A94D2F76C
:100FC000ED82FE820F831887C81AD90ADC82CB8291
:100FD000BA82CE0101960E9419092896E9E00C9484
:100FE000E40AACE0B0E0E7EFF7E00C94CF0A6983E5
:100FF0007A838B839C83CE010196BE016B5F7F4F0A
:101000000E94EE098D81823061F1823050F184308E
:1010100021F48E81882351F12EC02F81388537FD30
:1010200020C06E812F3131051CF06623F9F023C0FA
:101030008EE190E0821B930B29853A854B855C8578
:1010400004C056954795379527958A95D2F766231C
:10105000B1F050954095309521953F4F4F4F5F4FE0
:101060000EC020E030E040E050E009C02FEF3FEF3D
:101070004FEF5FE704C020E030E040E050E8B90106
:10108000CA012C96E2E00C94EB0AEF92FF920F93C8
:10109000DF93CF93CDB7DEB760970FB6F894DEBF7E
:1010A0000FBECDBFA82F002309F467C07E010894AE
:1010B000E11CF11C88E0F70111928A95E9F7298378
:1010C0003A834B835C836D837E83AF83988780E212
:1010D000801B4D815E816F817885E82FFF27E7FDBA
:1010E000F0951816B4F0DB01CA01BB0F880B982FDE
:1010F000DC018D879E87AF87B88B882799278E1B49
:101100009F0B04C075956795579547958A95D2F7BB
:1011100028C0202F332727FD3095DB01CA01022E7E
:1011200004C0B595A795979587950A94D2F78D87B2
:101130009E87AF87B88B04C0440F551F661F771F6B
:10114000EA95D2F789819A81AB81BC8104C0B695BA
:10115000A795979587952A95D2F7482B592B6A2BF7
:101160007B2B49875A876B877C8729853A854B85F6
:101170005C856D857E85AF8598898A2F60960FB6D0
:10118000F894DEBF0FBECDBFCF91DF910F91FF90DE
:10119000EF900895EF92FF920F931F937B018C01C4
:1011A00080E0E81680E0F80681E0080780E0180794
:1011B00088F48FEFE816F1040105110531F028F0ED
:1011C00088E090E0A0E0B0E017C080E090E0A0E010
:1011D000B0E012C080E0E81680E0F80680E0080782
:1011E00081E0180728F088E190E0A0E0B0E004C0BA
:1011F00080E190E0A0E0B0E020E230E040E050E0AC
:10120000281B390B4A0B5B0B04C016950795F79406
:10121000E7948A95D2F7F701E85FFE4F8081281B9B
:10122000310941095109C9011F910F91FF90EF90B8
:101230000895DF92EF92FF920F931F93FC01E480D9
:10124000F58006811781D1808081823048F480E06A
:1012500090E0A0E1B0E0E82AF92A0A2B1B2BA5C0F8
:10126000843009F49FC0823021F4EE24FF248701EA
:1012700005C0E114F1040105110519F4E0E0F0E006
:1012800096C0628173819FEF623879070CF05BC072
:1012900022E83FEF261B370B2A3131052CF020E0E6
:1012A00030E040E050E02AC0B801A701022E04C09F
:1012B00076956795579547950A94D2F781E090E027
:1012C000A0E0B0E004C0880F991FAA1FBB1F2A9599
:1012D000D2F70197A109B1098E219F21A023B12343
:1012E0000097A105B10521F081E090E0A0E0B0E019
:1012F0009A01AB01282B392B4A2B5B2BDA01C90150
:101300008F779070A070B07080349105A105B10501
:1013100039F427FF09C0205C3F4F4F4F5F4F04C097
:10132000215C3F4F4F4F5F4FE0E0F0E02030A0E006
:101330003A07A0E04A07A0E45A0710F0E1E0F0E025
:1013400079018A0127C06038710564F5FB01E15815
:10135000FF4FD801C7018F779070A070B0708034B4
:101360009105A105B10539F4E7FE0DC080E490E0D8
:10137000A0E0B0E004C08FE390E0A0E0B0E0E80EB1
:10138000F91E0A1F1B1F17FF05C016950795F79436
:10139000E794319687E016950795F794E7948A9538
:1013A000D1F705C0EE24FF248701EFEFF0E06E2FA8
:1013B000679566276795902F9F77D794DD24D794FC
:1013C0008E2F8695492F462B582F5D29B701CA01CC
:1013D0001F910F91FF90EF90DF900895FC01DB01CA
:1013E000408151812281622F6F7770E0221F222776
:1013F000221F9381892F880F822B282F30E0991F7D
:101400009927991F11969C93119721153105A9F5DC
:10141000411551056105710511F482E037C082E87C
:101420009FEF13969C938E9312979A01AB0167E0FE
:10143000220F331F441F551F6A95D1F783E08C9309
:101440000DC0220F331F441F551F12968D919C9182
:101450001397019713969C938E931297203080E0F8
:10146000380780E0480780E4580758F314962D9316
:101470003D934D935C93179708952F3F310579F471
:10148000411551056105710519F484E08C930895A7
:1014900064FF03C081E08C9312C01C9210C02F57D0
:1014A000304013963C932E93129783E08C9387E001
:1014B000440F551F661F771F8A95D1F770641496E5
:1014C0004D935D936D937C93179708951F93DC0163
:1014D000FB019C91923008F447C08081823008F46F
:1014E00043C0943051F411961C91843099F5818158
:1014F000682F70E0611B71093FC0843021F0923089
:1015000031F48230B9F18181882389F12DC011969F
:101510001C9111978230F1F081811817D9F412963D
:101520002D913C911397828193818217930794F0B8
:1015300028173907BCF014968D919D910D90BC91A0
:10154000A02D2481358146815781281739074A0704
:101550005B0718F4112341F00AC082179307A40710
:10156000B50740F4112319F061E070E005C06FEF9A
:101570007FEF02C060E070E0CB011F9108952F92D1
:101580003F924F925F926F927F928F929F92AF9213
:10159000BF92CF92DF92EF92FF920F931F93CF9360
:1015A000DF93CDB7DEB7CA1BDB0B0FB6F894DEBFF7
:1015B0000FBECDBF09942A88398848885F846E841D
:1015C0007D848C849B84AA84B984C884DF80EE8067
:1015D000FD800C811B81AA81B981CE0FD11D0FB670
:1015E000F894DEBF0FBECDBFED01089503D0E395A3
:1015F00028C010C13FD0E8F3E894E0E0BB279F5734
:10160000F0F02AED3FE049EC06C0EE0FBB0F661F7D
:10161000771F881F28F0B23A62077307840728F003
:10162000B25A620B730B840BE3959A9572F780386C
:1016300030F49A95BB0F661F771F881FD2F790482A
:10164000DDC0EF93E0FF06C0A2EA2AED3FE049ECDF
:101650005FEB79D008D10F90039401FC9058E8E635
:10166000F0E0E2C057FD9058440F551F59F05F3F1E
:1016700071F04795880F97FB991F61F09F3F79F0B4
:1016800087950895121613061406551FF2CF469536
:10169000F1DF08C0161617061806991FF1CF8695B8
:1016A000710561050894089511F40EF4B3C0A4C047
:1016B000E1DFD0F39923D9F3CEF39F57550B87FF82
:1016C000ACD00024A0E640EA90018058569597954A
:1016D00028F4805C660F771F881F20F026173707D5
:1016E000480730F4621B730B840B202931294A2BE5
:1016F000A69517940794202531254A2758F7660F99
:10170000771F881F20F026173707480730F4620B31
:10171000730B840B200D311D411DA09581F7B9017C
:10172000842F9158880F9695879508958ED030F024
:1017300093D020F031F49F3F11F41EF46BC00EF4EF
:10174000E095E7FB53C0E92F8DDF80F3BA176207FE
:1017500073078407950718F071F49EF595C00EF491
:10176000E0950B2EBA2FA02D0B01B90190010C01B1
:10177000CA01A0011124FF27591B99F0593F50F4C9
:10178000503E68F11A16F040A22F232F342F442721
:10179000585FF3CF469537952795A795F040539519
:1017A000C9F77EF41F16BA0B620B730B840BBAF0E9
:1017B0009150A1F0FF0FBB1F661F771F881FC2F754
:1017C0000EC0BA0F621F731F841F48F48795779568
:1017D0006795B795F7959E3F08F0B3CF9395880F1F
:1017E00008F09927EE0F97958795089597F99F67C9
:1017F00080E870E060E008959F3F31F0915020F460
:10180000879577956795B795880F911D96958795DC
:1018100097F908959FEF80EC089591505040660F1E
:10182000771F881FD2F708959F938F937F936F93AD
:10183000FF93EF939B01AC0170D9EF91FF912BD0F7
:101840002F913F914F915F9168C900240A94161619
:10185000170618060906089500240A94121613069E
:10186000140605060895092E0394000C11F488232C
:1018700052F0BB0F40F4BF2B11F460FF04C06F5F48
:101880007F4F8F4F9F4F0895E894BB276627772798
:10189000CB0197F90895DF93CF931F930F93FF9296
:1018A000EF92DF927B018C01689405C0DA2EEF0184
:1018B00021D0FE01E894A59125913591459155914E
:1018C000AEF3EF0140DFFE019701A801DA9479F74A
:1018D000DF90EF90FF900F911F91CF91DF910895CE
:1018E000B4DF28F0B9DF18F0952309F07FCF92CF4D
:1018F0001124CBCFB7DEA0F3959FD1F3950F50E025
:10190000551F629FF001729FBB27F00DB11D639FB1
:10191000AA27F00DB11DAA1F649F6627B00DA11D57
:10192000661F829F2227B00DA11D621F739FB00DFD
:10193000A11D621F839FA00D611D221F749F33276D
:10194000A00D611D231F849F600D211D822F762F06
:101950006A2F11249F5750408AF0E1F088234AF003
:10196000EE0FFF1FBB1F661F771F881F915050404F
:10197000A9F79E3F510570F039CF87CF5F3FECF359
:10198000983EDCF3869577956795B795F795E7953B
:101990009F5FC1F7FE2B880F911D9695879597F94C
:0619A0000895F894FFCF4A
:1019A6000000000000000000000102020303030320
:1019B60004040404040404040505050505050505D9
:1019C60005050505050505050606060606060606B9
:1019D60006060606060606060606060606060606A1
:1019E6000606060606060606070707070707070789
:1019F6000707070707070707070707070707070771
:101A06000707070707070707070707070707070760
:101A16000707070707070707070707070707070750
:101A26000707070707070707080808080808080838
:101A36000808080808080808080808080808080820
:101A46000808080808080808080808080808080810
:101A56000808080808080808080808080808080800
:101A660008080808080808080808080808080808F0
:101A760008080808080808080808080808080808E0
:101A860008080808080808080808080808080808D0
:101A960008080808080808080808080808080808C0
:081AA6000808080808080808F8
:00000001FF
