:100000000C9443000C9460000C9460000C9460000D
:100010000C9460000C9460000C9460000C946000E0
:100020000C9460000C9460000C9460000C943201FD
:100030000C94AE010C9460000C94C2000C94A201CC
:100040000C9460000C9460000C9460000C946000B0
:100050000C9460000C9460000C9460000C946000A0
:100060000C9460000C94600005A84CCDB2D44EB93D
:100070003836A9020C50B9918688083CA6AAAA2A4B
:10008000BE000000803F11241FBECFEFD8E0DEBFCE
:10009000CDBF11E0A0E0B1E0EAE6FDE002C00590CE
:1000A0000D92A432B107D9F711E0A4E2B1E001C08A
:1000B0001D92A433B107E1F70E9432030C94B306FA
:1000C0000C9400009B01AC010E9476032BED3FE0F5
:1000D00049E450E40E947E0520E030E040E752E42D
:1000E0000E94E10308959B01AC0160E07CE782E19E
:1000F00096E40E94E1030E94490468BD08959B01B3
:10010000AC0160E07CE782E196E40E94E1030E949A
:10011000490470938B0060938A0008959B01AC01A1
:1001200060E070E088E49FE30E94E1030E944904DC
:1001300070938B0060938A00089520912C01309178
:100140002D0140912E0150912F016091300170914D
:10015000310180913201909133010E947A0420E0B4
:1001600030E048E453E40E94E10320E030E040E066
:100170005EE30E947E0520E030E048E453E40E9404
:10018000E10308951F920F920FB60F9211241F934F
:100190002F933F934F935F936F937F938F939F938F
:1001A000AF93BF93EF93FF932B98809124012091FD
:1001B0002501309126014091270160912801E091AD
:1001C0002901A0912A0110912B01B82FBF5F91E066
:1001D000B81708F090E0F92FF20F81E0F21708F05D
:1001E00080E0782F730F81E0731708F080E0582FBC
:1001F000540F81E0541708F080E0382F360F81E06B
:10020000361708F080E0282F2E0F81E02E1708F017
:1002100080E0982F9A0F81E09A1708F080E0810F14
:10022000B0932401F0932501709326015093270188
:10023000309328012093290190932A0180932B0168
:10024000FF91EF91BF91AF919F918F917F916F91AE
:100250005F914F913F912F911F910F900FBE0F9083
:100260001F9018951F920F920FB60F9211241F9393
:100270002F933F934F935F936F937F938F939F93AE
:10028000AF93BF93EF93FF932C9880912C01209113
:100290002D0130912E0140912F0160913001E091AC
:1002A0003101A091320110913301B82FBF5F91E06D
:1002B000B81708F090E0F92FF20F81E0F21708F07C
:1002C00080E0782F730F81E0731708F080E0582FDB
:1002D000540F81E0541708F080E0382F360F81E08A
:1002E000361708F080E0282F2E0F81E02E1708F037
:1002F00080E0982F9A0F81E09A1708F080E0810F34
:10030000B0932C01F0932D0170932E0150932F0187
:100310003093300120933101909332018093330167
:10032000FF91EF91BF91AF919F918F917F916F91CD
:100330005F914F913F912F911F910F900FBE0F90A2
:100340001F9018951F920F920FB60F9211242B9A9F
:1003500016BC0F900FBE0F901F9018951F920F9212
:100360000FB60F9211242C9A1092850010928400DF
:100370000F900FBE0F901F9018951092C50087E642
:100380008093C400E2ECF0E0808186608083E1EC41
:10039000F0E08081886180830895982F8091C0006B
:1003A00085FFFCCF9093C60008958091C00087FF21
:1003B000FCCF8091C600089584B18F6184B91AB8CA
:1003C000539A83E08093810085BDEFE6F0E0808161
:1003D00086608083EEE6F0E0808186608083109204
:1003E00085001092840016BC82E387BD82E390E012
:1003F0009093890080938800299A5B9A0E94BD019E
:100400000895F894299A5B9A089578945B9A2998AC
:10041000289A60E070E088E492E40E947F0020E285
:100420003EE489B1F9013197F1F782FD02C087FD01
:10043000F8CF0895AC01DC010D900020E9F7119789
:10044000A81BB90B20E030E00CC0FA01E20FF31F4B
:10045000E0818091C00085FFFCCFE093C6002F5F54
:100460003F4F2A173B078CF308950F931F93DF9399
:10047000CF9300D000D00F92CDB7DEB78E010F5FC3
:100480001F4FB8014AE050E00E946E06C8010E946A
:100490001A020F900F900F900F900F90CF91DF9155
:1004A0001F910F910895AF92BF92CF92DF92EF927A
:1004B000FF920F931F9359016A012BED3FE049EC26
:1004C00050E40E947E0520E030E040E45FE30E94BB
:1004D000E1030E94DE0320E030E040E85EE30E949A
:1004E0007E0520E030E040E85FE30E9476039B0158
:1004F000AC016FEB7EE08CE19CE30E94E10323ED15
:1005000039ED49EC5AE30E9475032DE63BED4EE0D0
:1005100054E40E947E059B01AC010E947E0520E010
:1005200030E040E85FE30E9475030E94E5052FE696
:1005300032E143E05AE30E94E1037B018C0120E0B9
:1005400030E040E050E00E947A0518162CF0E0E020
:1005500070E080E060E008C0C601B501A801970125
:100560000E94E103E62F692F2E2F372F482F562F99
:10057000B901CA011F910F91FF90EF90DF90CF90CA
:10058000BF90AF9008956F927F928F929F92AF929B
:10059000BF92CF92DF92EF92FF920F931F93CF9370
:1005A000DF93789460E070E088EC92E40E9462004F
:1005B0005B016C0160E070E088EC92E40E947300E3
:1005C00029985B9828982A9A0F2EF0E0EF2EF0E0F9
:1005D000FF2EF0E00F2FF0E01F2FF02D882499243C
:1005E00040E2642E4EE4742EC1E0D0E01EC0C30190
:1005F0000197F1F789B190E035E0969587953A95A6
:10060000E1F7882483948822969587958C279D27E7
:100610009924939498220E949D007B018C01A6014D
:1006200095010E9453020E948E00C801B70120E08C
:1006300030E040E45FE30E94DA03882324F488205A
:1006400011F49920A1F2DF91CF911F910F91FF90AA
:10065000EF90DF90CF90BF90AF909F908F907F9062
:100660006F900895CF93DF930E94DC01F894299A4C
:100670005B9A80E091E00E941A0224EF31E0C0E929
:10068000D1E009C0CE010197F1F72150304003C0FD
:1006900024EF31E0F7CF21153105A1F789B186FDAF
:1006A00011C089E091E00E941A020E940502F894AC
:1006B000299A5B9A88E893E1FE013197F1F7019757
:1006C000D9F7E6CF87FDE4CF87E191E00E941A02D7
:1006D0000E94C302F894299A5B9A88E893E1FE018C
:1006E0003197F1F70197D9F7D3CF5058BB27AA27F5
:1006F0000ED0B5C17ED130F083D120F031F49F3FD0
:1007000011F41EF463C10EF4E095E7FB59C1E92F23
:10071000C8D180F3BA17620773078407950718F0EA
:1007200071F49EF5E0C10EF4E0950B2EBA2FA02DCA
:100730000B01B90190010C01CA01A0011124FF278E
:10074000591B99F0593F50F4503E68F11A16F04089
:10075000A22F232F342F4427585FF3CF4695379588
:100760002795A795F0405395C9F77EF41F16BA0B4D
:10077000620B730B840BBAF09150A1F0FF0FBB1FFB
:10078000661F771F881FC2F70EC0BA0F621F731F44
:10079000841F48F4879577956795B795F7959E3FA1
:1007A00008F0B3CF9395880F08F09927EE0F97952F
:1007B00087950895E1D008F481E0089529D1E39563
:1007C0005FC10CD04CC11CD140F013D130F021F4EA
:1007D0005F3F19F0F5C0511187C1F8C062D198F39D
:1007E0009923C9F35523B1F3951B550BBB27AA27B2
:1007F00062177307840738F09F5F5F4F220F331F24
:10080000441FAA1FA9F333D00E2E3AF0E0E830D0EF
:1008100091505040E695001CCAF729D0FE2F27D0F2
:10082000660F771F881FBB1F261737074807AB07C0
:10083000B0E809F0BB0B802DBF01FF2793585F4F35
:100840002AF09E3F510568F0BBC04EC15F3FECF3FC
:10085000983EDCF3869577956795B795F7959F5FFA
:10086000C9F7880F911D9695879597F90895E1E04E
:10087000660F771F881FBB1F621773078407BA07AD
:1008800020F0621B730B840BBA0BEE1F88F7E09508
:10089000089504D06894B11127C108950AD188F051
:1008A0009F5790F0B92F9927B751A0F0D1F0660F5C
:1008B000771F881F991F1AF0BA95C9F712C0B13077
:1008C00081F011D1B1E008950EC1672F782F8827EC
:1008D000B85F39F0B93FCCF3869577956795B395B6
:1008E000D9F73EF490958095709561957F4F8F4F25
:1008F0009F4F089597FB0EF46CD001C0E894F92F38
:1009000096EBFF2381F0121613061406440B939501
:10091000F69587957795679557954040FF23B9F7EA
:100920001BC099270895882351F49850D2F7872B3C
:10093000762F652F542F432F322F20E0B1F312165C
:1009400013061406440B88233AF09A95440F551F5A
:10095000661F771F881FCAF755234AF4440F551F97
:1009600011F460FF04C06F5F7F4F8F4F9F4F880F60
:100970009695879597F90895990F0008550FAA0B3A
:10098000E0E8FEEF16161706E807F907C0F01216A2
:100990001306E407F50798F0621B730B840B950BA5
:1009A00039F40A2661F0232B242B252B21F40895FA
:1009B0000A2609F4A140A6958FEF811D811D089597
:1009C00097F99F6780E870E060E008959FEF80EC02
:1009D00008959095809570956095509540953095C7
:1009E00021953F4F4F4F5F4F6F4F7F4F8F4F9F4F1F
:1009F000089500240A941616170618060906089585
:100A000000240A9412161306140605060895DECF74
:100A100050D0E8F3E894E0E0BB279F57F0F02AEDD0
:100A20003FE049EC06C0EE0FBB0F661F771F881F23
:100A300028F0B23A62077307840728F0B25A620BB3
:100A4000730B840BE3959A9572F7803830F49A957E
:100A5000BB0F661F771F881FD2F79048F6C0092E7C
:100A60000394000C11F4882352F0BB0F40F4BF2B09
:100A700011F460FF04C06F5F7F4F8F4F9F4F089549
:100A8000EF93E0FF06C0A2EA2AED3FE049EC5FEBFE
:100A90003EDEE5DF0F90039401FC9058E8E6F0E0BD
:100AA000E7C057FD9058440F551F59F05F3F71F054
:100AB0004795880F97FB991F61F09F3F79F08795C5
:100AC0000895121613061406551FF2CF4695F1DF4E
:100AD00008C0161617061806991FF1CF86957105DE
:100AE000610508940895E894BB2766277727CB0112
:100AF00097F9089541DF08F48FEF08950BD0AFCF39
:100B000078DF28F07DDF18F0952309F059CF5ECF0C
:100B10001124EACFC6DFA0F3959FD1F3950F50E0E3
:100B2000551F629FF001729FBB27F00DB11D639F9F
:100B3000AA27F00DB11DAA1F649F6627B00DA11D45
:100B4000661F829F2227B00DA11D621F739FB00DEB
:100B5000A11D621F839FA00D611D221F749F33275B
:100B6000A00D611D231F849F600D211D822F762FF4
:100B70006A2F11249F5750408AF0E1F088234AF0F1
:100B8000EE0FFF1FBB1F661F771F881F915050403D
:100B9000A9F79E3F510570F013CFA6CF5F3FECF34E
:100BA000983EDCF3869577956795B795F795E79529
:100BB0009F5FC1F7FE2B880F911D9695879597F93A
:100BC000089511F40EF402CF3EC073DFD0F39923E1
:100BD000D9F3CEF39F57550B87FF43D00024A0E6EF
:100BE00040EA900180585695979528F4805C660FEE
:100BF000771F881F20F026173707480730F4621B3D
:100C0000730B840B202931294A2BA695179407943E
:100C1000202531254A2758F7660F771F881F20F0B7
:100C200026173707480730F4620B730B840B200D2F
:100C3000311D411DA09581F7B901842F9158880F6E
:100C40009695879508959F3F31F0915020F48795B0
:100C500077956795B795880F911D9695879597F924
:100C6000089591505040660F771F881FD2F708955E
:100C70009F938F937F936F93FF93EF939B01AC01AF
:100C80003DDFEF91FF9105D02F913F914F915F9103
:100C900035CFDF93CF931F930F93FF92EF92DF92A5
:100CA0007B018C01689405C0DA2EEF0133DFFE0171
:100CB000E894A5912591359145915591AEF3EF01B9
:100CC00026DDFE019701A801DA9479F7DF90EF9015
:100CD000FF900F911F91CF91DF910895FB019F012C
:100CE000E8944230C4F04532B4F44A3029F497FB1A
:100CF0001EF4909581959F4F642F77270E949F0641
:100D0000805D8A330CF0895D8193CB010097A1F758
:100D100016F45DE251931082C9010C948F06DC0138
:100D2000FC01672F71917723E1F7329704C07C9122
:100D30006D9370836291AE17BF07C8F30895AA1B25
:100D4000BB1B51E107C0AA1FBB1FA617B70710F0B6
:100D5000A61BB70B881F991F5A95A9F780959095E8
:0A0D6000BC01CD010895F894FFCF07
:100D6A0068656C6C6F21202000726577696E646912
:100D7A006E672E2020200077696E64696E672E20C8
:040D8A002020000025
:00000001FF
